:100000000C9441000C940C080C940C080C940C08F3
:100010000C940C080C940C080C940C080C940C0810
:100020000C940C080C940C080C940C080C940C0800
:100030000C940C080C940C080C940C080C940C08F0
:100040000C940C080C940C080C940C080C940C08E0
:100050000C940C080C940C080C940C080C940C08D0
:100060000C940C080C940C080C940C080C940C08C0
:100070000C94E9050C940C080C9423060100023240
:10008000800011241FBECFEFD0E1DEBFCDBFECE773
:10009000F0E040E017C0B591A5913591259105910B
:1000A00007FD0CC095918591EF01F92FE82F059080
:1000B0000D92A217B307D9F7FE0104C01D92A21733
:1000C000B307E1F7E138F40731F70E94AB060C946F
:0600D0006900F894FFCF67
:1000D600556E6B6E6F776E20706F7274000D0A002E
:1000E600436F6D6D616E6420746F6F2073686F72FD
:1000F60074206F72206C6F6E672C206D7573742080
:1001060062652066697665004661696C2C206E6FB3
:10011600742076616C69642070696E206E756D62FC
:100126006572004661696C2C207573652030206607
:100136006F72206C6F77203120666F722068696756
:100146006800257320737563636573730052656178
:03015600647900C9
:10015A002F923F924F926F927F928F929F92AF927D
:10016A00BF92CF92DF92EF92FF920F931F93CF939A
:10017A00DF93CDB7DEB762970FB6F894DEBF0FBE36
:10018A00CDBF6C013A01862E7901FC0110861782D7
:10019A00848181FFE7C19E012F5F3F4F3D872C87F6
:1001AA00C901A0E8888B998BAA8B9FE3992EF3014A
:1001BA00849187FC8081882309F4D0C1482D93015A
:1001CA002F5F3F4F4F4F853219F03901842E0AC0F5
:1001DA00F901849147FD808192E0690E711C811CAE
:1001EA00853229F4B60190E00E94AD05E0CFB12C2A
:1001FA0000E010E01032A0F48B3269F030F4803263
:10020A0059F0833269F410612CC08D3239F0803391
:10021A0039F4116026C01260146023C0186021C02E
:10022A0017FD29C090ED980F9A3078F416FF06C092
:10023A00AAE0BA9E900D1124B92E13C0EAE00E9FCF
:10024A00900D1124092F10620CC08E3221F416FD74
:10025A0085C1106406C08C3611F4106802C0883655
:10026A0051F4F301849187FC8081FFEF6F1A7F0AB2
:10027A008F0A8111BFCF982F9F7D9554933028F410
:10028A0024E0E20EF11C99820FC0833631F08337E5
:10029A0091F0833509F063C027C0F7018081898313
:1002AA0097012E5F3F4F7901288839884A88AA2406
:1002BA00A394B12C17C0A7014D5F5F4F5F874E878C
:1002CA00F70120803180428016FF03C04B2D50E099
:1002DA0002C04FEF5FEF842DB1010E94FE065C0160
:1002EA00EE84FF841F7718C097012D5F3F4F3F8729
:1002FA002E87F70120803180428016FF03C04B2DE4
:10030A0050E002C04FEF5FEF842DB1010E94FE065C
:10031A005C011068EE84FF8413FD1DC0802F90E0FD
:10032A00A816B906C0F4B60180E290E00E94AD05B5
:10033A000150F4CFF101849147FC8081FFEF2F1A1D
:10034A003F0A4F0AB60190E00E94AD050111015023
:10035A0021E0A21AB108A114B10461F7F5C08436EC
:10036A0011F0893671F5F70117FF08C060817181B4
:10037A008281938197012C5F3F4F09C0608171810F
:10038A00072E000C880B990B97012E5F3F4F7901BE
:10039A001F76312E97FF0AC09095809570956195CA
:1003AA007F4F8F4F9F4F312F3068332E2AE030E036
:1003BA00AE014F5F5F4F0E944F05482E4C85441A8D
:1003CA004AC0853729F41F7EA12E2AE030E025C0D5
:1003DA00512F597FA52E8F36C1F018F4883579F040
:1003EA00BDC0803719F0883721F0B8C0852F8061E9
:1003FA00A82EA4FE0DC09A2D9460A92E09C014FF40
:10040A000AC0A52FA660AA2E06C028E030E005C0C3
:10041A0020E130E002C020E132E0F701A7FE08C087
:10042A006081718182819381A7014C5F5F4F07C010
:10043A006081718180E090E0A7014E5F5F4F7A0191
:10044A00AE014F5F5F4F0E944F05482E5C85451AEB
:10045A008A2D8F77382E36FE0DC0932D9E7FA92EBA
:10046A004B1458F434FE0BC032FC09C0A32DAE7EE7
:10047A00AA2E05C0142DA32C03C0142D01C01B2DB8
:10048A00A4FE0EC0FE01E40DF11D8081803321F42B
:10049A00EA2DE97EAE2E08C0A2FE05C01E5F04C08A
:1004AA008A2D867809F01F5FA3FC11C0A0FE06C042
:1004BA00101788F4040DB02EB11A0EC0101760F48C
:1004CA00B60180E290E00E94AD051F5FF7CF1017DA
:1004DA0018F4011B02C0B42C00E0A4FE10C0B6013F
:1004EA0080E390E00E94AD05A2FE17C0A1FC03C004
:1004FA0088E790E002C088E590E0B6010CC08A2D3A
:10050A00867859F0A1FE02C08BE201C080E2A7FC06
:10051A008DE2B60190E00E94AD054B1438F4B601A5
:10052A0080E390E00E94AD05BA94F7CF4A94E1E0E7
:10053A00F0E0EC0FFD1FE40DF11D8081B60190E0A3
:10054A000E94AD054110F2CF002309F430CEB60166
:10055A0080E290E00E94AD050150F6CFF601878156
:10056A00908502C08FEF9FEF62960FB6F894DEBFB8
:10057A000FBECDBFDF91CF911F910F91FF90EF90EA
:10058A00DF90CF90BF90AF909F908F907F906F90A9
:08059A004F903F902F9008954F
:1005A2002F923F924F925F926F927F928F92AF9271
:1005B200BF92CF92DF92EF920F931F93CF93DF936D
:1005C20000D000D000D0CDB7DEB73B01882E5A0153
:1005D20019014115510521F0FA016083718382836B
:1005E2002114310429F0C1010297839708F01AC13E
:1005F200E82C6301FFEFCF1ADF0AEF0AF30114912F
:1006020087FC1081812F90E00E94E9074C2D3D2D3F
:100612002E2D892B19F036018E2CEACF1D3269F46A
:10062200E82C630152E0C50ED11CE11CE42FF32F2C
:10063200149127FD108101E00EC01B3259F4E82C01
:10064200630182E0C80ED11CE11CE42FF32F149148
:1006520027FD108100E02114310409F190E12916EF
:10066200310429F43FC010E32114310421F1F8E0F0
:100672002F16310401F154F432E02316310421F52E
:10068200412C512C612C50E4752E4BC04AE02416AB
:10069200310439F050E125163104B1F43DC0103374
:1006A20019F13AE0232E312C4CEC442E542C642CBC
:1006B2004CE0742E36C098E0292E312C412C512C5E
:1006C200612C20E1722E2DC060E070E080E090E8A5
:1006D2009101032C000C440B550B0E946B0629015F
:1006E2003A011FC01033C1F4F6018491E7FC808106
:1006F2008F7D883509F0B7CFAE2DC6010196A11DB9
:10070200FC011491A7FD1081E2E0CE0ED11CE11C88
:10071200026060E1262E312C412C512C612C88E0A4
:10072200782EA0E060E070E0CB019101032C000C78
:10073200440B550B29833A834B835C83E0EDE10F35
:10074200EA3060F02FEB210F2A3110F4E9EC05C0FA
:100752002FE9210F2A3150F5E9EAE10F2E2F30E07F
:10076200221533051CF5A7FD18C046165706680664
:10077200790680F029813A814B815C810E94A80729
:100782006E0F711D811D911D61307105810530E86B
:10079200930710F0AFEF01C0A1E0F6011491E7FC5E
:1007A20010814FEFC41AD40AE40AC8CF202F217057
:1007B200A114B104B1F0AA2349F051E0C51AD1083D
:1007C200E108F501C082D182E2820BC001FF1DC0A7
:1007D200F2E0CF1AD108E108F501C082D182E282AB
:1007E20014C0A7FF12C0222329F060E070E080E06D
:1007F20090E804C06FEF7FEF8FEF9FE722E230E0D7
:10080200309301012093000109C0222381F09095C9
:100812008095709561957F4F8F4F9F4F462F372F51
:10082200282F12C040E030E020E090E00DC097FF9A
:10083200F5CF82E290E090930101809300016FEF87
:100842007FEF8FEF9FE7EACF642F732F822F2696D9
:100852000FB6F894DEBF0FBECDBFDF91CF911F91CF
:100862000F91EF90DF90CF90BF90AF908F907F90DD
:0C0872006F905F904F903F902F90089582
:10087E00CF92DF92EF920F931F93CF93DF93CDB76B
:10088E00DEB7CC52D1400FB6F894DEBF0FBECDBF4F
:10089E000E94F2078823E1F38E010F5F1F4FC801FC
:1008AE000E949407680120E8E22E602F7D2D822F92
:1008BE000E947E07059781F028E230E046EE50E078
:1008CE0060E0CE018B599F4F0E944E07CE018B598F
:1008DE009F4F0E94E30655C0BE016D5F7F4F80E8BB
:1008EE000E940508182F883080F02BE130E04EE092
:1008FE0051E060E0CE018B599F4F0E944E07CE0112
:10090E008B599F4F0E94E3063CC08D8180538230ED
:10091E0080F02FE130E049E251E060E0CE018B59EA
:10092E009F4F0E944E07CE018B599F4F0E94E306A8
:10093E0028C0EF92DF92CF9288E491E0A0E0AF93CF
:10094E009F938F936E0185E6C80ED11CDF92CF92D6
:10095E000E9448062D81412F6A81C6010E94D7044C
:10096E00C6010E94E3069FEF29E688E191502040E0
:10097E008040E1F700C000000FB6F894DEBF0FBE56
:10098E00CDBFC45DDE4F0FB6F894DEBF0FBECDBF38
:10099E00DF91CF911F910F91EF90DF90CF9008953F
:1009AE00623419F118F4613439F06AC06334B1F16C
:1009BE00643409F44CC064C0213359F422B181E08F
:1009CE0090E002C0880F991F4A95E2F7822B82B9F8
:1009DE00089522B181E090E002C0880F991F4A95D8
:1009EE00E2F78095822382B90895213359F425B117
:1009FE0081E090E002C0880F991F4A95E2F7822BA2
:100A0E0085B9089525B181E090E002C0880F991F45
:100A1E004A95E2F78095822385B90895213359F4DA
:100A2E0028B181E090E002C0880F991F4A95E2F745
:100A3E00822B88B9089528B181E090E002C0880F1A
:100A4E00991F4A95E2F78095822388B9089521333C
:100A5E0059F42BB181E090E002C0880F991F4A959E
:100A6E00E2F7822B8BB908952BB181E090E002C0A2
:100A7E00880F991F4A95E2F7809582238BB90895C6
:100A8E002DE030E046ED50E060E00E944E07089504
:100A9E00FA01AA27283051F1203181F1E8946F93A1
:100AAE006E7F6E5F7F4F8F4F9F4FAF4FB1E03ED047
:100ABE00B4E03CD0670F781F891F9A1FA11D680FE5
:100ACE00791F8A1F911DA11D6A0F711D811D911D18
:100ADE00A11D20D009F468943F912AE0269F11248D
:100AEE003019305D3193DEF6CF010895462F4770F1
:100AFE00405D4193B3E00FD0C9F7F6CF462F4F704C
:100B0E00405D4A3318F0495D31FD4052419302D0A9
:100B1E00A9F7EACFB4E0A69597958795779567954F
:100B2E00BA95C9F700976105710508959B01AC014F
:100B3E000A2E06945795479537952795BA95C9F776
:0C0B4E00620F731F841F951FA01D0895E7
:100B5A000F931F93CF93DF93FB01248121FD03C0E1
:100B6A008FEF9FEF2CC022FF16C047815085258149
:100B7A0036814217530744F4A081B1819D012F5F4A
:100B8A003F4F318320838C93278130852F5F3F4FDE
:100B9A003087278314C08B01EC01FB010184F285A5
:100BAA00E02D0995892BE1F6D80117968D919C9134
:100BBA001897019618969C938E931797CE01DF91FA
:080BCA00CF911F910F910895D6
:100BD2001F920F920FB60F9211242F938F939F9310
:100BE200EF93FF9380912E0281110EC0E0912F02AC
:100BF200E43650F481E08E0F80932F02F0E0809172
:100C0200CE00E653FE4F808380912F02833080F026
:100C120090E0FC01E753FE4F20812A3049F4FC01A9
:100C2200E853FE4F80818D3019F481E080932E02CB
:100C3200FF91EF919F918F912F910F900FBE0F9087
:040C42001F90189552
:100C46001F920F920FB60F9211248F93EF93FF937B
:100C5600E091300280913102E81758F481E08E0F5E
:100C660080933002F0E0EE5FFE4F80818093CE00ED
:100C760004C01092300210923102FF91EF918F91D1
:0A0C86000F900FBE0F901F901895FD
:100C9000AFE0B0E0EEE4F6E00C94D5060E891F89D3
:100CA00086E08D831A8309838FEF9FE79F838E836E
:100CB0009E01255E3F4F488D598D6A8DCE0101966C
:100CC0000E94AD00E885F985E00FF11F10822F9694
:060CD000E4E00C9427078C
:100CD600A1E21A2EAA1BBB1BFD010DC0AA1FBB1F3A
:100CE600EE1FFF1FA217B307E407F50720F0A21BAC
:100CF600B30BE40BF50B661F771F881F991F1A9419
:100D060069F760957095809590959B01AC01BD0142
:040D1600CF0108956C
:100D1A00E9ECF0E080818061808380818860808353
:100D2A00808180688083808180648083E8ECF0E041
:100D3A0080818260808386E08093CA0080E190E0AF
:0C0D4A009093CD008093CC007894089525
:100D5600CF93DF9300D000D000D0CDB7DEB70E948E
:100D6600DF070E948D0623E531E040E086E0F901C9
:100D7600DE011196742F0E94C707CE0101960E94CC
:080D8600E3060E943F04FDCFCB
:100D8E002F923F924F925F926F927F928F929F928D
:100D9E00AF92BF92CF92DF92EF92FF920F931F937B
:100DAE00CF93DF93CDB7DEB7CA1BDB0B0FB6F8942C
:080DBE00DEBF0FBECDBF09949A
:100DC600CF93DF93EC01FC0101900020E9F7CF01FE
:100DD60023E030E043EE50E060E001970E944E07CA
:100DE600BE0180E80E947E07682FCE010E9434076C
:060DF600DF91CF9108958A
:100DFC00CF92DF92EF926B01E82EA82FCB01411519
:100E0C00510531F48C199D09EF90DF90CF90089526
:100E1C00FC012491A7FD20812223A1F30196A11DA1
:060E2C0041505109ECCF1A
:100E32002A88398848885F846E847D848C849B8468
:100E4200AA84B984C884DF80EE80FD800C811B8176
:100E5200AA81B981CE0FD11D0FB6F894DEBF0FBEA5
:060E6200CDBFED01089573
:100E6800DC0190E00BC0292F30E0FD01E20FF31FF9
:100E78004081F901EE5FFE4F40839F5F961798F31C
:100E88006093310281E08093300280910201809367
:040E9800CE000895EB
:100E9C00CF92DF92EF92DC016A01E62E280F391F08
:100EAC00A217B30751F0F6014491E7FC40814D9332
:100EBC004FEFC41AD40AE40AF3CFEF90DF90CF902F
:020ECC00089587
:100ECE00BC0190E009C0FB01E90FF11DDA01A65348
:100EDE00BE4F2C9120839F5F492F50E020912F020F
:0E0EEE0030E022503109421753076CF308958B
:100EFC00CF92DF92EF926B01E82EA82FCB01FC0171
:100F0C002491A7FD2081222319F00196A11DF7CF72
:0C0F1C008C199D09EF90DF90CF90089594
:100F28000F931F93CF938C010E946707C0912F02E4
:100F3800C250F801EC0FF11D10820E9400088C2F9E
:080F4800CF911F910F91089554
:100F5000DB018F939F930E94D407BF91AF91A29F13
:100F6000800D911DA39F900DB29F900D11240895A7
:100F7000A29FB001B39FC001A39F700D811D1124DA
:0E0F8000911DB29F700D811D1124911D0895C9
:100F8E00992777FD05C005900D920197E1F7089519
:0A0F9E0001900D920197E1F708950C
:100FA8000E94B807A59F900DB49F900DA49F800D37
:060FB800911D11240895B3
:100FBE0081B18FEF81B994B184B997B187B99AB1E4
:040FCE008AB908953F
:100FD20091110C940908803219F089508550C8F794
:020FE200089570
:0E0FE40090912E0281E0911101C080E00895ED
:0E0FF2002AE030E040E050E00E94D102089575
:0A10000010922E0210922F020895A4
:08100A000E94F907CB010895D3
:06101200992788270895CC
:041018000C94000034
:00000001FF
